{
  "_format": "hh-sol-artifact-1",
  "contractName": "Distrubution",
  "sourceName": "contracts/Distrubution.sol",
  "abi": [
    {
      "inputs": [
        {
          "internalType": "address",
          "name": "_owner",
          "type": "address"
        }
      ],
      "stateMutability": "nonpayable",
      "type": "constructor"
    },
    {
      "inputs": [],
      "name": "joinMechanism",
      "outputs": [],
      "stateMutability": "nonpayable",
      "type": "function"
    }
  ],
  "bytecode": "0x608060405234801561001057600080fd5b50604051610183380380610183833981810160405281019061003291906100db565b806000806101000a81548173ffffffffffffffffffffffffffffffffffffffff021916908373ffffffffffffffffffffffffffffffffffffffff16021790555050610108565b600080fd5b600073ffffffffffffffffffffffffffffffffffffffff82169050919050565b60006100a88261007d565b9050919050565b6100b88161009d565b81146100c357600080fd5b50565b6000815190506100d5816100af565b92915050565b6000602082840312156100f1576100f0610078565b5b60006100ff848285016100c6565b91505092915050565b606d806101166000396000f3fe6080604052348015600f57600080fd5b506004361060285760003560e01c80638b08e2a414602d575b600080fd5b60336035565b005b56fea26469706673582212209deb34aaff1c6be7f350459f06437d076d1184583d33170b54f65022e68e616464736f6c63430008130033",
  "linkReferences": {},
  "deployedLinkReferences": {}
}